:0300000002007A81
:10003300E5DA540FF9C37831E6994019700BC3A977
:10004300D97830E699400E600CE5D97830F67831EE
:10005300E5DA540FF6E5DA540FF9C37833E699403D
:1000630009C3A9D97832E699500CE5D97832F678E4
:1000730033E5DA540FF6327581C275A8C075EF40C7
:1000830075D800783076FF783176FF78327600784D
:100093003376007A0074104AF5D80AC3EA940870DC
:1000A300F47830E6F5807831E6540FF97833E65486
:0F00B3000F75F010A449F5907832E6F5A080FEA5
:00000001FF
