:1000000075EF8075D800783076FF783176FF7832DA
:100010007600783376007A0074104AF5D8E5F55406
:1000200080C3948060F7E5DA540FF9C37831E6991C
:100030004019700BC3A9D97830E699400E600CE5E1
:10004000D97830F67831E5DA540FF6E5DA540FF95D
:10005000C37833E6994009C3A9D97832E699500CA0
:10006000E5D97832F67833E5DA540FF60AC3EA9424
:100070000870A57830E6F5807831E6540FF97833CA
:10008000E6540F75F010A449F5907832E6F5A0809B
:01009000FE71
:00000001FF
